{
    "contractName": "Register",
    "abi": [
        {
            "anonymous": false,
            "inputs": [
                {
                    "indexed": false,
                    "internalType": "address",
                    "name": "user_address",
                    "type": "address"
                }
            ],
            "name": "AddUser",
            "type": "event"
        },
        {
            "inputs": [
                {
                    "internalType": "address",
                    "name": "_user_address",
                    "type": "address"
                }
            ],
            "name": "getUser",
            "outputs": [
                {
                    "internalType": "address",
                    "name": "",
                    "type": "address"
                },
                {
                    "internalType": "string",
                    "name": "",
                    "type": "string"
                },
                {
                    "internalType": "string",
                    "name": "",
                    "type": "string"
                }
            ],
            "stateMutability": "view",
            "type": "function"
        },
        {
            "inputs": [
                {
                    "internalType": "address",
                    "name": "_user_address",
                    "type": "address"
                },
                {
                    "internalType": "string",
                    "name": "_password",
                    "type": "string"
                }
            ],
            "name": "login",
            "outputs": [
                {
                    "internalType": "bool",
                    "name": "log",
                    "type": "bool"
                }
            ],
            "stateMutability": "view",
            "type": "function"
        },
        {
            "inputs": [
                {
                    "internalType": "address",
                    "name": "_user_address",
                    "type": "address"
                },
                {
                    "internalType": "string",
                    "name": "_name",
                    "type": "string"
                },
                {
                    "internalType": "string",
                    "name": "_password",
                    "type": "string"
                }
            ],
            "name": "register",
            "outputs": [
                {
                    "internalType": "bool",
                    "name": "",
                    "type": "bool"
                }
            ],
            "stateMutability": "nonpayable",
            "type": "function"
        }
    ],
    "bytecode": "608060405234801561001057600080fd5b50610863806100206000396000f3fe608060405234801561001057600080fd5b50600436106100415760003560e01c80632f19d50b146100465780636f77926b1461006e5780638d59cc0214610090575b600080fd5b61005961005436600461055b565b6100a3565b60405190151581526020015b60405180910390f35b61008161007c3660046105a9565b6101d7565b60405161006593929190610614565b61005961009e366004610654565b6103b7565b6001600160a01b03808316600081815260208190526040812054909216036101d1576001600160a01b038316600090815260208190526040812060020180546100eb906106c8565b80601f0160208091040260200160405190810160405280929190818152602001828054610117906106c8565b80156101645780601f1061013957610100808354040283529160200191610164565b820191906000526020600020905b81548152906001019060200180831161014757829003601f168201915b50505050509050805183511461017e5760009150506101d1565b8060405160200161018f9190610702565b60405160208183030381529060405280519060200120836040516020016101b69190610702565b60405160208183030381529060405280519060200120149150505b92915050565b6001600160a01b038082166000818152602081905260408120549092606092839290911614610241576000604051806040016040528060018152602001600360fc1b815250604051806040016040528060018152602001600360fc1b8152509250925092506103b0565b6001600160a01b0380851660009081526020818152604080832081516060810190925280549094168152600184018054939491939192840191610283906106c8565b80601f01602080910402602001604051908101604052809291908181526020018280546102af906106c8565b80156102fc5780601f106102d1576101008083540402835291602001916102fc565b820191906000526020600020905b8154815290600101906020018083116102df57829003601f168201915b50505050508152602001600282018054610315906106c8565b80601f0160208091040260200160405190810160405280929190818152602001828054610341906106c8565b801561038e5780601f106103635761010080835404028352916020019161038e565b820191906000526020600020905b81548152906001019060200180831161037157829003601f168201915b5050505050815250509050806000015181602001518260400151935093509350505b9193909250565b6001600160a01b03808416600081815260208190526040812054909216036103e157506001610495565b604080516060810182526001600160a01b038681168083526020808401888152848601889052600092835290829052939020825181546001600160a01b03191692169190911781559151909190600182019061043d908261076d565b5060408201516002820190610452908261076d565b50506040516001600160a01b03861681527f93e8ef53fa1762269961bdc02811e560fa10787f7f2f9c13f74ddad8221614d2915060200160405180910390a15060005b9392505050565b80356001600160a01b03811681146104b357600080fd5b919050565b634e487b7160e01b600052604160045260246000fd5b600082601f8301126104df57600080fd5b813567ffffffffffffffff808211156104fa576104fa6104b8565b604051601f8301601f19908116603f01168101908282118183101715610522576105226104b8565b8160405283815286602085880101111561053b57600080fd5b836020870160208301376000602085830101528094505050505092915050565b6000806040838503121561056e57600080fd5b6105778361049c565b9150602083013567ffffffffffffffff81111561059357600080fd5b61059f858286016104ce565b9150509250929050565b6000602082840312156105bb57600080fd5b6104958261049c565b60005b838110156105df5781810151838201526020016105c7565b50506000910152565b600081518084526106008160208601602086016105c4565b601f01601f19169290920160200192915050565b6001600160a01b0384168152606060208201819052600090610638908301856105e8565b828103604084015261064a81856105e8565b9695505050505050565b60008060006060848603121561066957600080fd5b6106728461049c565b9250602084013567ffffffffffffffff8082111561068f57600080fd5b61069b878388016104ce565b935060408601359150808211156106b157600080fd5b506106be868287016104ce565b9150509250925092565b600181811c908216806106dc57607f821691505b6020821081036106fc57634e487b7160e01b600052602260045260246000fd5b50919050565b600082516107148184602087016105c4565b9190910192915050565b601f82111561076857600081815260208120601f850160051c810160208610156107455750805b601f850160051c820191505b8181101561076457828155600101610751565b5050505b505050565b815167ffffffffffffffff811115610787576107876104b8565b61079b8161079584546106c8565b8461071e565b602080601f8311600181146107d057600084156107b85750858301515b600019600386901b1c1916600185901b178555610764565b600085815260208120601f198616915b828110156107ff578886015182559484019460019091019084016107e0565b508582101561081d5787850151600019600388901b60f8161c191681555b5050505050600190811b0190555056fea2646970667358221220389a45510d94083466c9d5c52409ab559d9da4a1f801e6038b3d195ee9a7c23c64736f6c63430008130033",
    "sourcePath": "/home/csk/Desktop/Mini/My_project/back_end/contracts/Register.sol",
    "compiler": {
        "name": "solc",
        "version": "0.8.19+commit.7dd6d404"
    },
    "functionHashes": {
        "getUser(address)": "6f77926b",
        "login(address,string)": "2f19d50b",
        "register(address,string,string)": "8d59cc02"
    },
    "gasEstimates": {
        "creation": {
            "codeDepositCost": "429400",
            "executionCost": "468",
            "totalCost": "429868"
        },
        "external": {
            "getUser(address)": "infinite",
            "login(address,string)": "infinite",
            "register(address,string,string)": "infinite"
        }
    }
}