{
  "contractName": "Register",
  "abi": [
    {
      "anonymous": false,
      "inputs": [
        {
          "indexed": false,
          "internalType": "address",
          "name": "user_address",
          "type": "address"
        }
      ],
      "name": "AddUser",
      "type": "event"
    },
    {
      "inputs": [
        {
          "internalType": "address",
          "name": "_user_address",
          "type": "address"
        },
        {
          "internalType": "string",
          "name": "_name",
          "type": "string"
        },
        {
          "internalType": "string",
          "name": "_password",
          "type": "string"
        }
      ],
      "name": "register",
      "outputs": [
        {
          "internalType": "bool",
          "name": "",
          "type": "bool"
        }
      ],
      "stateMutability": "nonpayable",
      "type": "function"
    },
    {
      "inputs": [
        {
          "internalType": "address",
          "name": "_user_address",
          "type": "address"
        }
      ],
      "name": "getUser",
      "outputs": [
        {
          "internalType": "address",
          "name": "",
          "type": "address"
        },
        {
          "internalType": "string",
          "name": "",
          "type": "string"
        },
        {
          "internalType": "string",
          "name": "",
          "type": "string"
        }
      ],
      "stateMutability": "view",
      "type": "function",
      "constant": true
    },
    {
      "inputs": [
        {
          "internalType": "address",
          "name": "_user_address",
          "type": "address"
        },
        {
          "internalType": "string",
          "name": "_password",
          "type": "string"
        }
      ],
      "name": "login",
      "outputs": [
        {
          "internalType": "bool",
          "name": "log",
          "type": "bool"
        }
      ],
      "stateMutability": "view",
      "type": "function",
      "constant": true
    }
  ],
  "bytecode": "0x608060405234801561001057600080fd5b50610ecc806100206000396000f3fe608060405234801561001057600080fd5b50600436106100415760003560e01c80632f19d50b146100465780636f77926b146100765780638d59cc02146100a8575b600080fd5b610060600480360381019061005b9190610923565b6100d8565b60405161006d919061099a565b60405180910390f35b610090600480360381019061008b91906109b5565b6102ad565b60405161009f93929190610a70565b60405180910390f35b6100c260048036038101906100bd9190610ab5565b6105a4565b6040516100cf919061099a565b60405180910390f35b60008273ffffffffffffffffffffffffffffffffffffffff166000808573ffffffffffffffffffffffffffffffffffffffff1673ffffffffffffffffffffffffffffffffffffffff16815260200190815260200160002060000160009054906101000a900473ffffffffffffffffffffffffffffffffffffffff1673ffffffffffffffffffffffffffffffffffffffff16036102a65760008060008573ffffffffffffffffffffffffffffffffffffffff1673ffffffffffffffffffffffffffffffffffffffff16815260200190815260200160002060020180546101bc90610b6f565b80601f01602080910402602001604051908101604052809291908181526020018280546101e890610b6f565b80156102355780601f1061020a57610100808354040283529160200191610235565b820191906000526020600020905b81548152906001019060200180831161021857829003601f168201915b50505050509050805183511461024f5760009150506102a7565b806040516020016102609190610bdc565b60405160208183030381529060405280519060200120836040516020016102879190610bdc565b60405160208183030381529060405280519060200120149150506102a7565b5b92915050565b60006060808373ffffffffffffffffffffffffffffffffffffffff166000808673ffffffffffffffffffffffffffffffffffffffff1673ffffffffffffffffffffffffffffffffffffffff16815260200190815260200160002060000160009054906101000a900473ffffffffffffffffffffffffffffffffffffffff1673ffffffffffffffffffffffffffffffffffffffff16146103bf5760006040518060400160405280600181526020017f30000000000000000000000000000000000000000000000000000000000000008152506040518060400160405280600181526020017f300000000000000000000000000000000000000000000000000000000000000081525092509250925061059d565b60008060008673ffffffffffffffffffffffffffffffffffffffff1673ffffffffffffffffffffffffffffffffffffffff1681526020019081526020016000206040518060600160405290816000820160009054906101000a900473ffffffffffffffffffffffffffffffffffffffff1673ffffffffffffffffffffffffffffffffffffffff1673ffffffffffffffffffffffffffffffffffffffff16815260200160018201805461047090610b6f565b80601f016020809104026020016040519081016040528092919081815260200182805461049c90610b6f565b80156104e95780601f106104be576101008083540402835291602001916104e9565b820191906000526020600020905b8154815290600101906020018083116104cc57829003601f168201915b5050505050815260200160028201805461050290610b6f565b80601f016020809104026020016040519081016040528092919081815260200182805461052e90610b6f565b801561057b5780601f106105505761010080835404028352916020019161057b565b820191906000526020600020905b81548152906001019060200180831161055e57829003601f168201915b5050505050815250509050806000015181602001518260400151935093509350505b9193909250565b60008373ffffffffffffffffffffffffffffffffffffffff166000808673ffffffffffffffffffffffffffffffffffffffff1673ffffffffffffffffffffffffffffffffffffffff16815260200190815260200160002060000160009054906101000a900473ffffffffffffffffffffffffffffffffffffffff1673ffffffffffffffffffffffffffffffffffffffff16036106435760019050610764565b60405180606001604052808573ffffffffffffffffffffffffffffffffffffffff168152602001848152602001838152506000808673ffffffffffffffffffffffffffffffffffffffff1673ffffffffffffffffffffffffffffffffffffffff16815260200190815260200160002060008201518160000160006101000a81548173ffffffffffffffffffffffffffffffffffffffff021916908373ffffffffffffffffffffffffffffffffffffffff160217905550602082015181600101908161070e9190610da9565b5060408201518160020190816107249190610da9565b509050507f93e8ef53fa1762269961bdc02811e560fa10787f7f2f9c13f74ddad8221614d2846040516107579190610e7b565b60405180910390a1600090505b9392505050565b6000604051905090565b600080fd5b600080fd5b600073ffffffffffffffffffffffffffffffffffffffff82169050919050565b60006107aa8261077f565b9050919050565b6107ba8161079f565b81146107c557600080fd5b50565b6000813590506107d7816107b1565b92915050565b600080fd5b600080fd5b6000601f19601f8301169050919050565b7f4e487b7100000000000000000000000000000000000000000000000000000000600052604160045260246000fd5b610830826107e7565b810181811067ffffffffffffffff8211171561084f5761084e6107f8565b5b80604052505050565b600061086261076b565b905061086e8282610827565b919050565b600067ffffffffffffffff82111561088e5761088d6107f8565b5b610897826107e7565b9050602081019050919050565b82818337600083830152505050565b60006108c66108c184610873565b610858565b9050828152602081018484840111156108e2576108e16107e2565b5b6108ed8482856108a4565b509392505050565b600082601f83011261090a576109096107dd565b5b813561091a8482602086016108b3565b91505092915050565b6000806040838503121561093a57610939610775565b5b6000610948858286016107c8565b925050602083013567ffffffffffffffff8111156109695761096861077a565b5b610975858286016108f5565b9150509250929050565b60008115159050919050565b6109948161097f565b82525050565b60006020820190506109af600083018461098b565b92915050565b6000602082840312156109cb576109ca610775565b5b60006109d9848285016107c8565b91505092915050565b6109eb8161079f565b82525050565b600081519050919050565b600082825260208201905092915050565b60005b83811015610a2b578082015181840152602081019050610a10565b60008484015250505050565b6000610a42826109f1565b610a4c81856109fc565b9350610a5c818560208601610a0d565b610a65816107e7565b840191505092915050565b6000606082019050610a8560008301866109e2565b8181036020830152610a978185610a37565b90508181036040830152610aab8184610a37565b9050949350505050565b600080600060608486031215610ace57610acd610775565b5b6000610adc868287016107c8565b935050602084013567ffffffffffffffff811115610afd57610afc61077a565b5b610b09868287016108f5565b925050604084013567ffffffffffffffff811115610b2a57610b2961077a565b5b610b36868287016108f5565b9150509250925092565b7f4e487b7100000000000000000000000000000000000000000000000000000000600052602260045260246000fd5b60006002820490506001821680610b8757607f821691505b602082108103610b9a57610b99610b40565b5b50919050565b600081905092915050565b6000610bb6826109f1565b610bc08185610ba0565b9350610bd0818560208601610a0d565b80840191505092915050565b6000610be88284610bab565b915081905092915050565b60008190508160005260206000209050919050565b60006020601f8301049050919050565b600082821b905092915050565b600060088302610c557fffffffffffffffffffffffffffffffffffffffffffffffffffffffffffffffff82610c18565b610c5f8683610c18565b95508019841693508086168417925050509392505050565b6000819050919050565b6000819050919050565b6000610ca6610ca1610c9c84610c77565b610c81565b610c77565b9050919050565b6000819050919050565b610cc083610c8b565b610cd4610ccc82610cad565b848454610c25565b825550505050565b600090565b610ce9610cdc565b610cf4818484610cb7565b505050565b5b81811015610d1857610d0d600082610ce1565b600181019050610cfa565b5050565b601f821115610d5d57610d2e81610bf3565b610d3784610c08565b81016020851015610d46578190505b610d5a610d5285610c08565b830182610cf9565b50505b505050565b600082821c905092915050565b6000610d8060001984600802610d62565b1980831691505092915050565b6000610d998383610d6f565b9150826002028217905092915050565b610db2826109f1565b67ffffffffffffffff811115610dcb57610dca6107f8565b5b610dd58254610b6f565b610de0828285610d1c565b600060209050601f831160018114610e135760008415610e01578287015190505b610e0b8582610d8d565b865550610e73565b601f198416610e2186610bf3565b60005b82811015610e4957848901518255600182019150602085019450602081019050610e24565b86831015610e665784890151610e62601f891682610d6f565b8355505b6001600288020188555050505b505050505050565b6000602082019050610e9060008301846109e2565b9291505056fea2646970667358221220eb06ce85e5fd61ffee2ba1b5ab21300c4b42f17744df84a1bd9ec624c9118bf664736f6c63430008130033",
  "immutableReferences": {},
  "source": "// SPDX-License-Identifier: MIT\npragma solidity 0.8.19;\n\ncontract Register{\n       \n    struct User {\n        address user_address;\n        string name;\n        string password;\n    }\n\n    mapping(address => User) private users;\n\n    event AddUser(address user_address);\n\n    // function to register a user in the chain\n    function register (address _user_address,string memory _name, string memory _password) public returns(bool){\n        // If the address already exists in the users then return true\n        if (users[_user_address].user_address == _user_address){\n            return true;\n        }\n        // If not then add the address to users\n        users[_user_address] = User(_user_address,_name,_password);\n        emit AddUser(_user_address);\n        return false;\n    }\n\n    // function to get the details of a user given an address\n    function getUser(address _user_address) public view returns (address, string memory, string memory) {\n        // If the address doesn't exists\n        if (users[_user_address].user_address != _user_address){\n            return (address(0),\"0\",\"0\");\n        }\n\n        User memory user = users[_user_address];\n        return (user.user_address, user.name, user.password);\n    }\n\n    // function to login\n    function login(address _user_address, string memory _password) public view returns(bool log){\n        if(users[_user_address].user_address == _user_address){\n            string memory pwd = users[_user_address].password;\n            if (bytes(_password).length != bytes(pwd).length){\n                return false;\n            }\n            return keccak256(abi.encodePacked(_password)) == keccak256(abi.encodePacked(pwd));\n        }\n    }\n}",
  "sourcePath": "/home/csk/Desktop/Mini/My_project/back_end/contracts/Register.sol",
  "compiler": {
    "name": "solc",
    "version": "0.8.19+commit.7dd6d404.Emscripten.clang"
  },
  "schemaVersion": "3.4.12",
  "updatedAt": "2023-04-02T16:02:36.234Z",
  "networkType": "ethereum",
  "devdoc": {
    "kind": "dev",
    "methods": {},
    "version": 1
  },
  "userdoc": {
    "kind": "user",
    "methods": {},
    "version": 1
  }
}