{
  "contractName": "Register",
  "abi": [
    {
      "inputs": [
        {
          "internalType": "address",
          "name": "_user_address",
          "type": "address"
        },
        {
          "internalType": "string",
          "name": "_name",
          "type": "string"
        },
        {
          "internalType": "string",
          "name": "_password",
          "type": "string"
        }
      ],
      "name": "register",
      "outputs": [
        {
          "internalType": "bool",
          "name": "",
          "type": "bool"
        }
      ],
      "stateMutability": "nonpayable",
      "type": "function"
    },
    {
      "inputs": [
        {
          "internalType": "address",
          "name": "_user_address",
          "type": "address"
        }
      ],
      "name": "getUser",
      "outputs": [
        {
          "internalType": "address",
          "name": "",
          "type": "address"
        },
        {
          "internalType": "string",
          "name": "",
          "type": "string"
        },
        {
          "internalType": "string",
          "name": "",
          "type": "string"
        }
      ],
      "stateMutability": "view",
      "type": "function",
      "constant": true
    },
    {
      "inputs": [
        {
          "internalType": "address",
          "name": "_user_address",
          "type": "address"
        },
        {
          "internalType": "string",
          "name": "_password",
          "type": "string"
        }
      ],
      "name": "login",
      "outputs": [
        {
          "internalType": "bool",
          "name": "log",
          "type": "bool"
        }
      ],
      "stateMutability": "view",
      "type": "function",
      "constant": true
    },
    {
      "inputs": [
        {
          "internalType": "address",
          "name": "pubkey",
          "type": "address"
        }
      ],
      "name": "getUsername",
      "outputs": [
        {
          "internalType": "string",
          "name": "",
          "type": "string"
        }
      ],
      "stateMutability": "view",
      "type": "function",
      "constant": true
    },
    {
      "inputs": [
        {
          "internalType": "address",
          "name": "friend_add",
          "type": "address"
        },
        {
          "internalType": "string",
          "name": "name",
          "type": "string"
        }
      ],
      "name": "addFriend",
      "outputs": [],
      "stateMutability": "nonpayable",
      "type": "function"
    },
    {
      "inputs": [],
      "name": "getMyFriendList",
      "outputs": [
        {
          "components": [
            {
              "internalType": "address",
              "name": "pubkey",
              "type": "address"
            },
            {
              "internalType": "string",
              "name": "name",
              "type": "string"
            }
          ],
          "internalType": "struct Register.friend[]",
          "name": "",
          "type": "tuple[]"
        }
      ],
      "stateMutability": "view",
      "type": "function",
      "constant": true
    },
    {
      "inputs": [
        {
          "internalType": "address",
          "name": "friend_add",
          "type": "address"
        },
        {
          "internalType": "string",
          "name": "_msg",
          "type": "string"
        }
      ],
      "name": "sendMessage",
      "outputs": [],
      "stateMutability": "nonpayable",
      "type": "function"
    },
    {
      "inputs": [
        {
          "internalType": "address",
          "name": "friend_add",
          "type": "address"
        }
      ],
      "name": "readMessages",
      "outputs": [
        {
          "components": [
            {
              "internalType": "address",
              "name": "sender",
              "type": "address"
            },
            {
              "internalType": "uint256",
              "name": "timestamp",
              "type": "uint256"
            },
            {
              "internalType": "string",
              "name": "msg",
              "type": "string"
            }
          ],
          "internalType": "struct Register.message[]",
          "name": "",
          "type": "tuple[]"
        }
      ],
      "stateMutability": "view",
      "type": "function",
      "constant": true
    },
    {
      "inputs": [],
      "name": "showItems",
      "outputs": [
        {
          "components": [
            {
              "internalType": "string",
              "name": "name",
              "type": "string"
            },
            {
              "internalType": "string",
              "name": "info",
              "type": "string"
            },
            {
              "internalType": "string",
              "name": "cid",
              "type": "string"
            }
          ],
          "internalType": "struct Register.Item[]",
          "name": "",
          "type": "tuple[]"
        }
      ],
      "stateMutability": "view",
      "type": "function",
      "constant": true
    },
    {
      "inputs": [
        {
          "internalType": "string",
          "name": "_name",
          "type": "string"
        },
        {
          "internalType": "string",
          "name": "_info",
          "type": "string"
        },
        {
          "internalType": "string",
          "name": "_cid",
          "type": "string"
        }
      ],
      "name": "AddItem",
      "outputs": [],
      "stateMutability": "nonpayable",
      "type": "function"
    },
    {
      "inputs": [
        {
          "internalType": "address",
          "name": "buyer",
          "type": "address"
        },
        {
          "components": [
            {
              "internalType": "string",
              "name": "name",
              "type": "string"
            },
            {
              "internalType": "string",
              "name": "info",
              "type": "string"
            },
            {
              "internalType": "string",
              "name": "cid",
              "type": "string"
            }
          ],
          "internalType": "struct Register.Item",
          "name": "itm",
          "type": "tuple"
        }
      ],
      "name": "SendItem",
      "outputs": [],
      "stateMutability": "nonpayable",
      "type": "function"
    }
  ],
  "bytecode": "0x608060405234801561001057600080fd5b50612baa806100206000396000f3fe608060405234801561001057600080fd5b50600436106100a95760003560e01c80636f77926b116100715780636f77926b146101645780638d59cc0214610196578063bd0f4d0d146101c6578063ce43c032146101e4578063de6f24bb14610214578063efbb6c6314610230576100a9565b80630459ed72146100ae5780632f19d50b146100de5780633b9f708d1461010e5780633dd26a931461012a5780634a9c99da14610148575b600080fd5b6100c860048036038101906100c39190611a42565b61024c565b6040516100d59190611c39565b60405180910390f35b6100f860048036038101906100f39190611d90565b6103bf565b6040516101059190611e07565b60405180910390f35b61012860048036038101906101239190611e82565b610598565b005b6101326106c0565b60405161013f9190612002565b60405180910390f35b610162600480360381019061015d9190612024565b610912565b005b61017e60048036038101906101799190611a42565b6109e4565b60405161018d93929190612124565b60405180910390f35b6101b060048036038101906101ab9190612169565b610cdb565b6040516101bd9190611e07565b60405180910390f35b6101ce610f5f565b6040516101db91906122f3565b60405180910390f35b6101fe60048036038101906101f99190611a42565b6110e3565b60405161020b9190612315565b60405180910390f35b61022e60048036038101906102299190611e82565b6111b6565b005b61024a600480360381019061024591906123f9565b6112ea565b005b6060600061025a33846116bd565b905060026000828152602001908152602001600020805480602002602001604051908101604052809291908181526020016000905b828210156103b357838290600052602060002090600302016040518060600160405290816000820160009054906101000a900473ffffffffffffffffffffffffffffffffffffffff1673ffffffffffffffffffffffffffffffffffffffff1673ffffffffffffffffffffffffffffffffffffffff1681526020016001820154815260200160028201805461032290612484565b80601f016020809104026020016040519081016040528092919081815260200182805461034e90612484565b801561039b5780601f106103705761010080835404028352916020019161039b565b820191906000526020600020905b81548152906001019060200180831161037e57829003601f168201915b5050505050815250508152602001906001019061028f565b50505050915050919050565b60008273ffffffffffffffffffffffffffffffffffffffff166000808573ffffffffffffffffffffffffffffffffffffffff1673ffffffffffffffffffffffffffffffffffffffff16815260200190815260200160002060000160009054906101000a900473ffffffffffffffffffffffffffffffffffffffff1673ffffffffffffffffffffffffffffffffffffffff160361058d5760008060008573ffffffffffffffffffffffffffffffffffffffff1673ffffffffffffffffffffffffffffffffffffffff16815260200190815260200160002060020180546104a390612484565b80601f01602080910402602001604051908101604052809291908181526020018280546104cf90612484565b801561051c5780601f106104f15761010080835404028352916020019161051c565b820191906000526020600020905b8154815290600101906020018083116104ff57829003601f168201915b505050505090508051835114610536576000915050610592565b8060405160200161054791906124f1565b604051602081830303815290604052805190602001208360405160200161056e91906124f1565b6040516020818303038152906040528051906020012014915050610592565b600090505b92915050565b6105e7338484848080601f016020809104026020016040519081016040528093929190818152602001838380828437600081840152601f19601f82011690508083019250505050505050611755565b6106bb83336000803373ffffffffffffffffffffffffffffffffffffffff1673ffffffffffffffffffffffffffffffffffffffff168152602001908152602001600020600101805461063890612484565b80601f016020809104026020016040519081016040528092919081815260200182805461066490612484565b80156106b15780601f10610686576101008083540402835291602001916106b1565b820191906000526020600020905b81548152906001019060200180831161069457829003601f168201915b5050505050611755565b505050565b6060600360003373ffffffffffffffffffffffffffffffffffffffff1673ffffffffffffffffffffffffffffffffffffffff168152602001908152602001600020805480602002602001604051908101604052809291908181526020016000905b82821015610909578382906000526020600020906003020160405180606001604052908160008201805461075490612484565b80601f016020809104026020016040519081016040528092919081815260200182805461078090612484565b80156107cd5780601f106107a2576101008083540402835291602001916107cd565b820191906000526020600020905b8154815290600101906020018083116107b057829003601f168201915b505050505081526020016001820180546107e690612484565b80601f016020809104026020016040519081016040528092919081815260200182805461081290612484565b801561085f5780601f106108345761010080835404028352916020019161085f565b820191906000526020600020905b81548152906001019060200180831161084257829003601f168201915b5050505050815260200160028201805461087890612484565b80601f01602080910402602001604051908101604052809291908181526020018280546108a490612484565b80156108f15780601f106108c6576101008083540402835291602001916108f1565b820191906000526020600020905b8154815290600101906020018083116108d457829003601f168201915b50505050508152505081526020019060010190610721565b50505050905090565b60006040518060600160405280858152602001848152602001838152509050600360003373ffffffffffffffffffffffffffffffffffffffff1673ffffffffffffffffffffffffffffffffffffffff16815260200190815260200160002081908060018154018082558091505060019003906000526020600020906003020160009091909190915060008201518160000190816109af91906126b4565b5060208201518160010190816109c591906126b4565b5060408201518160020190816109db91906126b4565b50505050505050565b60006060808373ffffffffffffffffffffffffffffffffffffffff166000808673ffffffffffffffffffffffffffffffffffffffff1673ffffffffffffffffffffffffffffffffffffffff16815260200190815260200160002060000160009054906101000a900473ffffffffffffffffffffffffffffffffffffffff1673ffffffffffffffffffffffffffffffffffffffff1614610af65760006040518060400160405280600181526020017f30000000000000000000000000000000000000000000000000000000000000008152506040518060400160405280600181526020017f3000000000000000000000000000000000000000000000000000000000000000815250925092509250610cd4565b60008060008673ffffffffffffffffffffffffffffffffffffffff1673ffffffffffffffffffffffffffffffffffffffff1681526020019081526020016000206040518060600160405290816000820160009054906101000a900473ffffffffffffffffffffffffffffffffffffffff1673ffffffffffffffffffffffffffffffffffffffff1673ffffffffffffffffffffffffffffffffffffffff168152602001600182018054610ba790612484565b80601f0160208091040260200160405190810160405280929190818152602001828054610bd390612484565b8015610c205780601f10610bf557610100808354040283529160200191610c20565b820191906000526020600020905b815481529060010190602001808311610c0357829003601f168201915b50505050508152602001600282018054610c3990612484565b80601f0160208091040260200160405190810160405280929190818152602001828054610c6590612484565b8015610cb25780601f10610c8757610100808354040283529160200191610cb2565b820191906000526020600020905b815481529060010190602001808311610c9557829003601f168201915b5050505050815250509050806000015181602001518260400151935093509350505b9193909250565b60003373ffffffffffffffffffffffffffffffffffffffff163373ffffffffffffffffffffffffffffffffffffffff1614610d1557600080fd5b8373ffffffffffffffffffffffffffffffffffffffff166000808673ffffffffffffffffffffffffffffffffffffffff1673ffffffffffffffffffffffffffffffffffffffff16815260200190815260200160002060000160009054906101000a900473ffffffffffffffffffffffffffffffffffffffff1673ffffffffffffffffffffffffffffffffffffffff1603610db25760019050610f58565b60008060008673ffffffffffffffffffffffffffffffffffffffff1673ffffffffffffffffffffffffffffffffffffffff1681526020019081526020016000209050848160000160006101000a81548173ffffffffffffffffffffffffffffffffffffffff021916908373ffffffffffffffffffffffffffffffffffffffff16021790555083816001019081610e4891906126b4565b5082816002019081610e5a91906126b4565b50806000808360000160009054906101000a900473ffffffffffffffffffffffffffffffffffffffff1673ffffffffffffffffffffffffffffffffffffffff1673ffffffffffffffffffffffffffffffffffffffff1681526020019081526020016000206000820160009054906101000a900473ffffffffffffffffffffffffffffffffffffffff168160000160006101000a81548173ffffffffffffffffffffffffffffffffffffffff021916908373ffffffffffffffffffffffffffffffffffffffff16021790555060018201816001019081610f39919061279c565b5060028201816002019081610f4e919061279c565b5090505060009150505b9392505050565b6060600160003373ffffffffffffffffffffffffffffffffffffffff1673ffffffffffffffffffffffffffffffffffffffff168152602001908152602001600020805480602002602001604051908101604052809291908181526020016000905b828210156110da57838290600052602060002090600202016040518060400160405290816000820160009054906101000a900473ffffffffffffffffffffffffffffffffffffffff1673ffffffffffffffffffffffffffffffffffffffff1673ffffffffffffffffffffffffffffffffffffffff16815260200160018201805461104990612484565b80601f016020809104026020016040519081016040528092919081815260200182805461107590612484565b80156110c25780601f10611097576101008083540402835291602001916110c2565b820191906000526020600020905b8154815290600101906020018083116110a557829003601f168201915b50505050508152505081526020019060010190610fc0565b50505050905090565b60606000808373ffffffffffffffffffffffffffffffffffffffff1673ffffffffffffffffffffffffffffffffffffffff168152602001908152602001600020600101805461113190612484565b80601f016020809104026020016040519081016040528092919081815260200182805461115d90612484565b80156111aa5780601f1061117f576101008083540402835291602001916111aa565b820191906000526020600020905b81548152906001019060200180831161118d57829003601f168201915b50505050509050919050565b60006111c233856116bd565b9050600060405180606001604052803373ffffffffffffffffffffffffffffffffffffffff16815260200142815260200185858080601f016020809104026020016040519081016040528093929190818152602001838380828437600081840152601f19601f8201169050808301925050505050505081525090506002600083815260200190815260200160002081908060018154018082558091505060019003906000526020600020906003020160009091909190915060008201518160000160006101000a81548173ffffffffffffffffffffffffffffffffffffffff021916908373ffffffffffffffffffffffffffffffffffffffff1602179055506020820151816001015560408201518160020190816112e091906126b4565b5050505050505050565b600360008373ffffffffffffffffffffffffffffffffffffffff1673ffffffffffffffffffffffffffffffffffffffff168152602001908152602001600020819080600181540180825580915050600190039060005260206000209060030201600090919091909150600082015181600001908161136891906126b4565b50602082015181600101908161137e91906126b4565b50604082015181600201908161139491906126b4565b50505060006113a33383611852565b905060008112156113e9576040517f08c379a00000000000000000000000000000000000000000000000000000000081526004016113e0906128d0565b60405180910390fd5b600360003373ffffffffffffffffffffffffffffffffffffffff1673ffffffffffffffffffffffffffffffffffffffff168152602001908152602001600020818154811061143a576114396128f0565b5b9060005260206000209060030201600080820160006114599190611973565b6001820160006114699190611973565b6002820160006114799190611973565b50506001600360003373ffffffffffffffffffffffffffffffffffffffff1673ffffffffffffffffffffffffffffffffffffffff168152602001908152602001600020805490506114ca9190612958565b81121561162057600360003373ffffffffffffffffffffffffffffffffffffffff1673ffffffffffffffffffffffffffffffffffffffff1681526020019081526020016000206001600360003373ffffffffffffffffffffffffffffffffffffffff1673ffffffffffffffffffffffffffffffffffffffff1681526020019081526020016000208054905061155f919061299b565b815481106115705761156f6128f0565b5b9060005260206000209060030201600360003373ffffffffffffffffffffffffffffffffffffffff1673ffffffffffffffffffffffffffffffffffffffff16815260200190815260200160002082815481106115cf576115ce6128f0565b5b9060005260206000209060030201600082018160000190816115f1919061279c565b5060018201816001019081611606919061279c565b506002820181600201908161161b919061279c565b509050505b600360003373ffffffffffffffffffffffffffffffffffffffff1673ffffffffffffffffffffffffffffffffffffffff16815260200190815260200160002080548061166f5761166e6129cf565b5b6001900381819060005260206000209060030201600080820160006116949190611973565b6001820160006116a49190611973565b6002820160006116b49190611973565b50509055505050565b60008173ffffffffffffffffffffffffffffffffffffffff168373ffffffffffffffffffffffffffffffffffffffff161015611723578282604051602001611706929190612a46565b60405160208183030381529060405280519060200120905061174f565b8183604051602001611736929190612a46565b6040516020818303038152906040528051906020012090505b92915050565b600060405180604001604052808473ffffffffffffffffffffffffffffffffffffffff168152602001838152509050600160008573ffffffffffffffffffffffffffffffffffffffff1673ffffffffffffffffffffffffffffffffffffffff16815260200190815260200160002081908060018154018082558091505060019003906000526020600020906002020160009091909190915060008201518160000160006101000a81548173ffffffffffffffffffffffffffffffffffffffff021916908373ffffffffffffffffffffffffffffffffffffffff160217905550602082015181600101908161184991906126b4565b50505050505050565b600080600090505b600360008573ffffffffffffffffffffffffffffffffffffffff1673ffffffffffffffffffffffffffffffffffffffff1681526020019081526020016000208054905081121561194857826040015180519060200120600360008673ffffffffffffffffffffffffffffffffffffffff1673ffffffffffffffffffffffffffffffffffffffff1681526020019081526020016000208281548110611901576119006128f0565b5b906000526020600020906003020160020160405161191f9190612b15565b604051809103902003611935578091505061196d565b808061194090612b2c565b91505061185a565b507fffffffffffffffffffffffffffffffffffffffffffffffffffffffffffffffff90505b92915050565b50805461197f90612484565b6000825580601f1061199157506119b0565b601f0160209004906000526020600020908101906119af91906119b3565b5b50565b5b808211156119cc5760008160009055506001016119b4565b5090565b6000604051905090565b600080fd5b600080fd5b600073ffffffffffffffffffffffffffffffffffffffff82169050919050565b6000611a0f826119e4565b9050919050565b611a1f81611a04565b8114611a2a57600080fd5b50565b600081359050611a3c81611a16565b92915050565b600060208284031215611a5857611a576119da565b5b6000611a6684828501611a2d565b91505092915050565b600081519050919050565b600082825260208201905092915050565b6000819050602082019050919050565b611aa481611a04565b82525050565b6000819050919050565b611abd81611aaa565b82525050565b600081519050919050565b600082825260208201905092915050565b60005b83811015611afd578082015181840152602081019050611ae2565b60008484015250505050565b6000601f19601f8301169050919050565b6000611b2582611ac3565b611b2f8185611ace565b9350611b3f818560208601611adf565b611b4881611b09565b840191505092915050565b6000606083016000830151611b6b6000860182611a9b565b506020830151611b7e6020860182611ab4565b5060408301518482036040860152611b968282611b1a565b9150508091505092915050565b6000611baf8383611b53565b905092915050565b6000602082019050919050565b6000611bcf82611a6f565b611bd98185611a7a565b935083602082028501611beb85611a8b565b8060005b85811015611c275784840389528151611c088582611ba3565b9450611c1383611bb7565b925060208a01995050600181019050611bef565b50829750879550505050505092915050565b60006020820190508181036000830152611c538184611bc4565b905092915050565b600080fd5b600080fd5b7f4e487b7100000000000000000000000000000000000000000000000000000000600052604160045260246000fd5b611c9d82611b09565b810181811067ffffffffffffffff82111715611cbc57611cbb611c65565b5b80604052505050565b6000611ccf6119d0565b9050611cdb8282611c94565b919050565b600067ffffffffffffffff821115611cfb57611cfa611c65565b5b611d0482611b09565b9050602081019050919050565b82818337600083830152505050565b6000611d33611d2e84611ce0565b611cc5565b905082815260208101848484011115611d4f57611d4e611c60565b5b611d5a848285611d11565b509392505050565b600082601f830112611d7757611d76611c5b565b5b8135611d87848260208601611d20565b91505092915050565b60008060408385031215611da757611da66119da565b5b6000611db585828601611a2d565b925050602083013567ffffffffffffffff811115611dd657611dd56119df565b5b611de285828601611d62565b9150509250929050565b60008115159050919050565b611e0181611dec565b82525050565b6000602082019050611e1c6000830184611df8565b92915050565b600080fd5b600080fd5b60008083601f840112611e4257611e41611c5b565b5b8235905067ffffffffffffffff811115611e5f57611e5e611e22565b5b602083019150836001820283011115611e7b57611e7a611e27565b5b9250929050565b600080600060408486031215611e9b57611e9a6119da565b5b6000611ea986828701611a2d565b935050602084013567ffffffffffffffff811115611eca57611ec96119df565b5b611ed686828701611e2c565b92509250509250925092565b600081519050919050565b600082825260208201905092915050565b6000819050602082019050919050565b60006060830160008301518482036000860152611f2b8282611b1a565b91505060208301518482036020860152611f458282611b1a565b91505060408301518482036040860152611f5f8282611b1a565b9150508091505092915050565b6000611f788383611f0e565b905092915050565b6000602082019050919050565b6000611f9882611ee2565b611fa28185611eed565b935083602082028501611fb485611efe565b8060005b85811015611ff05784840389528151611fd18582611f6c565b9450611fdc83611f80565b925060208a01995050600181019050611fb8565b50829750879550505050505092915050565b6000602082019050818103600083015261201c8184611f8d565b905092915050565b60008060006060848603121561203d5761203c6119da565b5b600084013567ffffffffffffffff81111561205b5761205a6119df565b5b61206786828701611d62565b935050602084013567ffffffffffffffff811115612088576120876119df565b5b61209486828701611d62565b925050604084013567ffffffffffffffff8111156120b5576120b46119df565b5b6120c186828701611d62565b9150509250925092565b6120d481611a04565b82525050565b600082825260208201905092915050565b60006120f682611ac3565b61210081856120da565b9350612110818560208601611adf565b61211981611b09565b840191505092915050565b600060608201905061213960008301866120cb565b818103602083015261214b81856120eb565b9050818103604083015261215f81846120eb565b9050949350505050565b600080600060608486031215612182576121816119da565b5b600061219086828701611a2d565b935050602084013567ffffffffffffffff8111156121b1576121b06119df565b5b6121bd86828701611d62565b925050604084013567ffffffffffffffff8111156121de576121dd6119df565b5b6121ea86828701611d62565b9150509250925092565b600081519050919050565b600082825260208201905092915050565b6000819050602082019050919050565b60006040830160008301516122386000860182611a9b565b50602083015184820360208601526122508282611b1a565b9150508091505092915050565b60006122698383612220565b905092915050565b6000602082019050919050565b6000612289826121f4565b61229381856121ff565b9350836020820285016122a585612210565b8060005b858110156122e157848403895281516122c2858261225d565b94506122cd83612271565b925060208a019950506001810190506122a9565b50829750879550505050505092915050565b6000602082019050818103600083015261230d818461227e565b905092915050565b6000602082019050818103600083015261232f81846120eb565b905092915050565b600080fd5b600080fd5b60006060828403121561235757612356612337565b5b6123616060611cc5565b9050600082013567ffffffffffffffff8111156123815761238061233c565b5b61238d84828501611d62565b600083015250602082013567ffffffffffffffff8111156123b1576123b061233c565b5b6123bd84828501611d62565b602083015250604082013567ffffffffffffffff8111156123e1576123e061233c565b5b6123ed84828501611d62565b60408301525092915050565b600080604083850312156124105761240f6119da565b5b600061241e85828601611a2d565b925050602083013567ffffffffffffffff81111561243f5761243e6119df565b5b61244b85828601612341565b9150509250929050565b7f4e487b7100000000000000000000000000000000000000000000000000000000600052602260045260246000fd5b6000600282049050600182168061249c57607f821691505b6020821081036124af576124ae612455565b5b50919050565b600081905092915050565b60006124cb82611ac3565b6124d581856124b5565b93506124e5818560208601611adf565b80840191505092915050565b60006124fd82846124c0565b915081905092915050565b60008190508160005260206000209050919050565b60006020601f8301049050919050565b600082821b905092915050565b60006008830261256a7fffffffffffffffffffffffffffffffffffffffffffffffffffffffffffffffff8261252d565b612574868361252d565b95508019841693508086168417925050509392505050565b6000819050919050565b60006125b16125ac6125a784611aaa565b61258c565b611aaa565b9050919050565b6000819050919050565b6125cb83612596565b6125df6125d7826125b8565b84845461253a565b825550505050565b600090565b6125f46125e7565b6125ff8184846125c2565b505050565b5b81811015612623576126186000826125ec565b600181019050612605565b5050565b601f8211156126685761263981612508565b6126428461251d565b81016020851015612651578190505b61266561265d8561251d565b830182612604565b50505b505050565b600082821c905092915050565b600061268b6000198460080261266d565b1980831691505092915050565b60006126a4838361267a565b9150826002028217905092915050565b6126bd82611ac3565b67ffffffffffffffff8111156126d6576126d5611c65565b5b6126e08254612484565b6126eb828285612627565b600060209050601f83116001811461271e576000841561270c578287015190505b6127168582612698565b86555061277e565b601f19841661272c86612508565b60005b828110156127545784890151825560018201915060208501945060208101905061272f565b86831015612771578489015161276d601f89168261267a565b8355505b6001600288020188555050505b505050505050565b60008154905061279581612484565b9050919050565b8181036127aa575050612882565b6127b382612786565b67ffffffffffffffff8111156127cc576127cb611c65565b5b6127d68254612484565b6127e1828285612627565b6000601f83116001811461281057600084156127fe578287015490505b6128088582612698565b86555061287b565b601f19841661281e87612508565b965061282986612508565b60005b828110156128515784890154825560018201915060018501945060208101905061282c565b8683101561286e578489015461286a601f89168261267a565b8355505b6001600288020188555050505b5050505050505b565b7f434944206e6f7420666f756e642e000000000000000000000000000000000000600082015250565b60006128ba600e836120da565b91506128c582612884565b602082019050919050565b600060208201905081810360008301526128e9816128ad565b9050919050565b7f4e487b7100000000000000000000000000000000000000000000000000000000600052603260045260246000fd5b6000819050919050565b7f4e487b7100000000000000000000000000000000000000000000000000000000600052601160045260246000fd5b60006129638261291f565b915061296e8361291f565b925082820390508181126000841216828213600085121516171561299557612994612929565b5b92915050565b60006129a682611aaa565b91506129b183611aaa565b92508282039050818111156129c9576129c8612929565b5b92915050565b7f4e487b7100000000000000000000000000000000000000000000000000000000600052603160045260246000fd5b60008160601b9050919050565b6000612a16826129fe565b9050919050565b6000612a2882612a0b565b9050919050565b612a40612a3b82611a04565b612a1d565b82525050565b6000612a528285612a2f565b601482019150612a628284612a2f565b6014820191508190509392505050565b600081905092915050565b60008190508160005260206000209050919050565b60008154612a9f81612484565b612aa98186612a72565b94506001821660008114612ac45760018114612ad957612b0c565b60ff1983168652811515820286019350612b0c565b612ae285612a7d565b60005b83811015612b0457815481890152600182019150602081019050612ae5565b838801955050505b50505092915050565b6000612b218284612a92565b915081905092915050565b6000612b378261291f565b91507f7fffffffffffffffffffffffffffffffffffffffffffffffffffffffffffffff8203612b6957612b68612929565b5b60018201905091905056fea2646970667358221220626db5ffb2eb7e977e2a75d443c787ae8bace09684eddc716f56bae3472faaf864736f6c63430008130033",
  "immutableReferences": {},
  "source": "// SPDX-License-Identifier: MIT\npragma solidity 0.8.19;\n\ncontract Register{\n\n    // Stores the details of the friend\n    struct friend {\n        address pubkey;\n        string name;\n    }\n\n    // Stores the Details about the user       \n    struct user {\n        address user_address;\n        string name;\n        string password;\n    }\n\n    // Stores the single chat message info\n    struct message {\n        address sender;\n        uint256 timestamp;\n        string msg;\n    }\n     \n    // Stores the Item's information\n    struct Item {\n        string name;\n        string info;\n        string cid;\n    }\n    // Collection of users registered into the app\n    mapping(address => user) private userList;\n\n    // Collection of all the friends that a user have\n    mapping(address => friend[]) friendsList;\n\n    // Collection of messages communicated in a channel\n    mapping(bytes32 => message[]) allMessages; // key is Hash(user_1,user_2)\n\n    // mapping CID's of different items to address\n    mapping(address => Item[]) private items;\n\n    // function to register a user in the blockchain\n    function register (address _user_address,string memory _name, string memory _password) public returns(bool){\n        require(msg.sender == msg.sender);\n        // If the address already exists in the userList then return true\n        if (userList[_user_address].user_address == _user_address){\n            return true;\n        }\n        // if doesn't exists\n        user storage usr = userList[_user_address];\n        usr.user_address = _user_address;\n        usr.name = _name;\n        usr.password = _password;\n\n        userList[usr.user_address] = usr;\n        return false;\n    }\n\n    // function to get the details of a user given an address\n    function getUser(address _user_address) public view returns (address, string memory, string memory) {\n        // If the address doesn't exists\n        if (userList[_user_address].user_address != _user_address){\n            return (address(0),\"0\",\"0\");\n        }\n\n        user memory _user = userList[_user_address];\n        return (_user.user_address, _user.name, _user.password);\n    }\n\n    // function to login\n    function login(address _user_address, string memory _password) public view returns(bool log){\n        if(userList[_user_address].user_address == _user_address){\n            string memory pwd = userList[_user_address].password;\n            if (bytes(_password).length != bytes(pwd).length){\n                return false;\n            }\n            return keccak256(abi.encodePacked(_password)) == keccak256(abi.encodePacked(pwd));\n        } else{\n            return false;\n        }\n    }\n\n    // Returns the default name provided by an user\n    function getUsername(address pubkey) external view returns(string memory) {\n        return userList[pubkey].name;\n    }\n\n    // function to update the friendList\n    function _addFriend(address user_1, address user_2, string memory name) internal {\n        friend memory newFriend = friend(user_2, name);\n        friendsList[user_1].push(newFriend);\n    }\n\n    // Adds new user as a friend\n    function addFriend(address friend_add, string calldata name) external {        \n        // add the friend address to your friend's list and vice-versa\n        _addFriend(msg.sender, friend_add, name);\n        _addFriend(friend_add, msg.sender, userList[msg.sender].name);\n    }   \n\n    // function to return the list of all the friends of the sender\n    function getMyFriendList() public view returns(friend[] memory){\n        return friendsList[msg.sender];\n    }\n\n    // function to create a unique code for a messaging channel\n    // returns hash value in the type bytes32\n    function _getChanelCode(address add_1, address add_2) internal pure returns(bytes32){\n        if (add_1 < add_2)\n            return keccak256(abi.encodePacked(add_1,add_2));\n        else\n            return keccak256(abi.encodePacked(add_2,add_1));\n    }\n\n    // Send a message to a friend\n    function sendMessage(address friend_add, string calldata _msg) public {\n        bytes32 channelCode = _getChanelCode(msg.sender, friend_add);\n        message memory newMsg = message(msg.sender, block.timestamp, _msg);\n        allMessages[channelCode].push(newMsg);\n    }\n\n    // function to read the messages from a channel\n    function readMessages(address friend_add) public view returns(message[] memory){\n        bytes32 channelCode = _getChanelCode(msg.sender, friend_add);\n        return allMessages[channelCode];\n    }\n    \n    // function to show all the items\n    function showItems() public view returns(Item[] memory){\n        return items[msg.sender];\n    }\n\n    // function to store the ipfs CID's with respect to each user\n    function AddItem(string memory _name, string memory _info, string memory _cid) public {\n        Item memory newItem = Item(_name,_info,_cid); \n        items[msg.sender].push(newItem);\n    }\n\n    // function to find the index of the cid to delete\n    function findIndex(address usr, Item memory itm) private view returns (int) {\n        for (int i=0; i<int(items[usr].length); i++) {\n            if (keccak256(bytes(items[usr][uint(i)].cid)) == keccak256(bytes(itm.cid))) {\n                return i;\n            }\n        }\n        return -1;\n    } \n\n    // function to send the CID to other user\n    function SendItem(address buyer, Item memory itm) public {\n        items[buyer].push(itm);\n        int index  = findIndex(msg.sender, itm);\n        \n        require(index >= 0, \"CID not found.\");\n        delete items[msg.sender][uint(index)];\n        \n        if (index < int(items[msg.sender].length) - 1) {\n            items[msg.sender][uint(index)] = items[msg.sender][uint(items[msg.sender].length - 1)];\n        }\n        items[msg.sender].pop();\n    }\n}",
  "sourcePath": "/home/csk/Desktop/Mini/My_project/back_end/contracts/Register.sol",
  "compiler": {
    "name": "solc",
    "version": "0.8.19+commit.7dd6d404.Emscripten.clang"
  },
  "schemaVersion": "3.4.12",
  "updatedAt": "2023-05-04T14:43:45.320Z",
  "networkType": "ethereum",
  "devdoc": {
    "kind": "dev",
    "methods": {},
    "version": 1
  },
  "userdoc": {
    "kind": "user",
    "methods": {},
    "version": 1
  }
}